:100000000C9452010C947A010C947A010C947A01AC
:100010000C947A010C947A010C947A010C947A0174
:100020000C947A010C947A010C947A010C947A0164
:100030000C947A010C947A010C947A010C947A0154
:100040000C94A7050C947A010C9417060C94F105F6
:100050000C947A010C947A010C947A010C947A0134
:100060000C947A010C947A01000000000000005FFB
:1000700000000007000700147F147F14242A7F2A41
:10008000122313086462364955225000050300000C
:10009000001C2241000041221C0014083E081408E4
:1000A000083E0808005030000008080808080060F2
:1000B00060000020100804023E5149453E00427F86
:1000C000400042615149462141454B311814127F8D
:1000D0001027454545393C4A494930017109050316
:1000E0003649494936064949291E0036360000007E
:1000F0005636000008142241001414141414004150
:100100002214080201510906324979413E7E11113B
:10011000117E7F494949363E414141227F4141227A
:100120001C7F494949417F090909013E4149497AF2
:100130007F0808087F00417F41002040413F017F48
:10014000081422417F404040407F020C027F7F0420
:1001500008107F3E4141413E7F090909063E415159
:10016000215E7F09192946464949493101017F012C
:10017000013F4040403F1F2040201F3F4038403F4C
:100180006314081463070870080761514945430068
:100190007F41410002040810200041417F00040219
:1001A0000102044040404040000102040020545439
:1001B00054787F48444438384444442038444448C0
:1001C0007F3854545418087E0901020C5252523E92
:1001D0007F0804047800447D40002040443D007FB7
:1001E0001028440000417F40007C041804787C08FB
:1001F00004047838444444387C1414140808141453
:10020000187C7C080404084854545420043F44409B
:10021000203C4040207C1C2040201C3C4030403C86
:1002200044281028440C5050503C4464544C440022
:100230000836410000007F00000041360800100829
:100240000810080000000000000000002400270043
:100250002A0000000000250028002B0000000000FC
:1002600023002600290004040404040404040202F8
:100270000202020203030303030301020408102025
:100280004080010204081020010204081020000030
:100290000008000201000003040700000000000045
:1002A0000000490611241FBECFEFD8E0DEBFCDBF4E
:1002B00011E0A0E0B1E0EAECFBE102C005900D9294
:1002C000A037B107D9F722E0A0E7B1E001C01D9245
:1002D000A536B207E1F711E0C2E5D1E004C02197ED
:1002E000FE010E94DD0DC135D107C9F70E948906C4
:1002F0000C94E30D0C940000833081F028F48130DD
:1003000099F08230A9F008958730A9F08830C9F0BB
:100310008430B1F4809180008F7D03C08091800093
:100320008F7780938000089584B58F7784BD08957A
:1003300084B58F7DFBCF8091B0008F778093B00024
:1003400008958091B0008F7DF9CFCF93DF93EAE9D4
:10035000F2E08491E6E8F2E0D491E2E7F2E0C491C1
:10036000CC23A1F081110E947C01EC2FF0E0EE0F74
:10037000FF1FE45AFD4FA591B491EC91ED2381E06C
:1003800090E009F480E0DF91CF91089580E090E063
:10039000FACF1F93CF93DF93282F30E0F901E25774
:1003A000FD4F8491F901E658FD4FD491F901EA59C6
:1003B000FD4FC491CC23A9F0162F81110E947C011E
:1003C000EC2FF0E0EE0FFF1FEE5AFD4FA591B49118
:1003D0008FB7F894EC91111108C0D095DE23DC930F
:1003E0008FBFDF91CF911F910895DE2BF8CFCF9370
:1003F000DF9390E0FC01E658FD4F24918A599D4F10
:10040000FC0184918823D1F090E0880F991FFC01B2
:10041000E85BFD4FA591B491FC01EE5AFD4FC591EB
:10042000D49161110EC09FB7F8948C91E22FE095A2
:100430008E238C932881E223E8839FBFDF91CF91A5
:1004400008958FB7F894EC91E22BEC938FBFF6CF21
:10045000806480937C0080917A00806480937A002D
:1004600080917A0086FDFCCF809178009091790090
:1004700008953FB7F8948091750190917601A0910D
:100480007701B091780126B5A89B05C02F3F19F0E0
:100490000196A11DB11D3FBFBA2FA92F982F882704
:1004A000BC01CD01620F711D811D911D42E0660FDF
:1004B000771F881F991F4A95D1F708958F929F92B1
:1004C000AF92BF92CF92DF92EF92FF924B015C010D
:1004D0000E9439026B017C010E9439026C197D096E
:1004E0008E099F09683E734081059105A8F321E0BC
:1004F000821A9108A108B10888EEC80E83E0D81EC0
:10050000E11CF11C81149104A104B10429F7FF90AE
:10051000EF90DF90CF90BF90AF909F908F90089515
:10052000AF92BF92CF92DF92EF92FF920F931F9301
:10053000CF93DF936C017B018B01040F151FEB013F
:100540005E01AE18BF08C017D10759F06991D601F6
:10055000ED91FC910190F081E02DC6010995892B68
:1005600079F7C501DF91CF911F910F91FF90EF9027
:10057000DF90CF90BF90AF900895FC01538D448DD4
:10058000252F30E0842F90E0821B930B541710F03E
:10059000CF96089501970895FC01918D828D98174B
:1005A00061F0A28DAE0FBF2FB11D5D968C91928D23
:1005B0009F5F9F73928F90E008958FEF9FEF089554
:1005C000FC01918D828D981731F0828DE80FF11D1D
:1005D000858D90E008958FEF9FEF0895FC01918D38
:1005E000228D892F90E0805C9F4F821B91098F7331
:1005F0009927089589E791E00E94EE0221E0892B76
:1006000009F420E0822F089580E090E0892B29F002
:100610000E94FA0281110C9400000895FC01A48D3F
:10062000A80FB92FB11DA35ABF4F2C91848D90E014
:1006300001968F739927848FA689B7892C93A089F7
:10064000B1898C91837080648C93938D848D981381
:1006500006C00288F389E02D80818F7D8083089514
:10066000EF92FF920F931F93CF93DF93EC0181E002
:10067000888F9B8D8C8D98131AC0E889F9898081A9
:1006800085FF15C09FB7F894EE89FF896083E889DC
:10069000F98980818370806480839FBF81E090E0CE
:1006A000DF91CF911F910F91FF90EF900895F62E5B
:1006B0000B8D10E00F5F1F4F0F731127E02E8C8DF5
:1006C0008E110CC00FB607FCFACFE889F98980813A
:1006D00085FFF5CFCE010E940E03F1CFEB8DEC0F1D
:1006E000FD2FF11DE35AFF4FF0829FB7F8940B8F57
:1006F000EA89FB8980818062CFCFCF93DF93EC01C1
:10070000888D8823B9F0AA89BB89E889F9898C91F9
:1007100085FD03C0808186FD0DC00FB607FCF7CFB5
:100720008C9185FFF2CF808185FFEDCFCE010E94B5
:100730000E03E9CFDF91CF910895089590E080E016
:100740000895EF92FF920F931F93CF93DF93EC01E5
:10075000042F8E810E94C90160E088850E94C90132
:10076000FC80ED8018E0602F661F6627661F8E2DC7
:100770000E94C901000F61E08F2D0E94C90160E055
:100780008F2D0E94C901115071F761E08885DF91BA
:10079000CF911F910F91FF90EF900C94C901CF93CF
:1007A000DF93C6E1D2E01C8690E06B8529E3629F6F
:1007B000612D1124669570E06F5F7F4F0E94930D4D
:1007C0008D8740E860E0CE010E94A1034D85406422
:1007D00060E0CE01DF91CF910C94A103FB01019069
:1007E0000020E9F73197AF01461B570BDC01ED9173
:1007F000FC910280F381E02D09946EE171E089E7BC
:1008000091E00C94EE038F929F92AF92BF92EF9281
:10081000FF920F931F93CF93DF93CDB7DEB7A197CE
:100820000FB6F894DEBF0FBECDBF7C01FA01CB013D
:1008300019A2223008F42AE08E010F5D1F4F822E8C
:10084000912CB12CA12CBF01A50194010E94A70DF0
:10085000F901CA016A300CF5605DD8016E938D0113
:10086000232B242B252B79F790E080E0109721F0A3
:10087000BD01C7010E94EE03A1960FB6F894DEBF3A
:100880000FBECDBFDF91CF911F910F91FF90EF90E1
:10089000BF90AF909F908F900895695CDECF8F924C
:1008A0009F92AF92BF92CF92DF92EF92FF920F93FF
:1008B0001F93CF93DF93EC016A017B01AB0196019B
:1008C000CB01B6010E948E0D61E271E0811126C05C
:1008D00046015701E894B7F82FEF3FEF4FE75FE786
:1008E000C501B4010E948E0D81110CC02FEF3FEFA6
:1008F0004FE75FE7C501B4010E94C40B65E271E0F8
:10090000181664F02FEF3FEF4FE75FE4C701B60121
:100910000E941C0D18168CF469E271E0CE01DF9183
:10092000CF911F910F91FF90EF90DF90CF90BF90EC
:10093000AF909F908F900C94EE032FEF3FEF4FE717
:100940005FECC701B6010E94C40B87FDE5CF20E034
:1009500030E0A901C701B6010E94C40B10E000E01D
:1009600087FF0DC0E881F9810190F081E02D6DE2F3
:10097000CE0109958C01F7FAF094F7F8F0942AE08B
:1009800037ED43EA5BE3C701B6010E94580B4B0108
:100990005C010E943B0C6B017C010E946A0C9B0174
:1009A000AC01C501B4010E94570B4B015C012AE068
:1009B000B701A601CE010E940304080F191FE881A8
:1009C000F9810190F081E02D6EE2CE010995080FCA
:1009D000191F20E030E040E251E4C501B4010E945B
:1009E000210D4B015C010E943B0C6B01F12CE12CB1
:1009F0002AE0B701A601CE010E940304080F191FC7
:100A0000C701B6010E946A0C9B01AC01C501B4018B
:100A10000E94570B20E030E040E251E40E94210D9B
:100A20000E943B0CAB0170E060E02AE0CE010E9426
:100A30000304800F911FDF91CF911F910F91FF90C1
:100A4000EF90DF90CF90BF90AF909F908F900895E0
:100A50000C94EE03CF92DF92EF92FF920F931F93CD
:100A6000CF93DF9300D000D01F92CDB7DEB767FDE4
:100A70006BC07C01862F90E0603208F455C08097EF
:100A800025E0289FB001299F700D112468597F4FE0
:100A900045E050E0CE0101960E944E0B8E010F5FA3
:100AA0001F4F680185E0C80ED11CF80141918F01EC
:100AB000F70186858111409561E0C7010E94A1037D
:100AC0000C151D0591F7F7014685419561E0C701B9
:100AD0000E94A103F701848590E00696628570E08C
:100AE0000E94930D8487892B79F4858590E0019687
:100AF000638529E3629F612D1124669570E06F5F25
:100B00007F4F0E94930D858781E090E00F900F90BA
:100B10000F900F900F90DF91CF911F910F91FF9049
:100B2000EF90DF90CF900895880F991FF701E80F9D
:100B3000F91F078510890115110509F0B2CF45E0AD
:100B400050E068E670E0A6CF90E080E0DFCF1F9233
:100B50000F920FB60F9211242F933F938F939F9371
:100B6000AF93BF938091710190917201A091730135
:100B7000B09174013091700123E0230F2D3758F5A7
:100B80000196A11DB11D2093700180937101909376
:100B90007201A0937301B0937401809175019091DB
:100BA0007601A0917701B09178010196A11DB11D48
:100BB0008093750190937601A0937701B0937801AB
:100BC000BF91AF919F918F913F912F910F900FBE49
:100BD0000F901F90189526E8230F0296A11DB11DB6
:100BE000D2CF1F920F920FB60F9211242F933F93E3
:100BF0004F935F936F937F938F939F93AF93BF9325
:100C0000EF93FF9389E791E00E940E03FF91EF912C
:100C1000BF91AF919F918F917F916F915F914F9114
:100C20003F912F910F900FBE0F901F9018951F921C
:100C30000F920FB60F9211242F938F939F93EF93E0
:100C4000FF93E0918901F0918A018081E0918F0109
:100C5000F091900182FD1BC09081809192018F5F85
:100C60008F7320919301821741F0E0919201F0E09F
:100C7000E758FE4F958F80939201FF91EF919F91DE
:100C80008F912F910F900FBE0F901F90189580811C
:100C9000F4CFE9E7F1E01382128288EE93E0A0E05E
:100CA000B0E084839583A683B78384E091E0918349
:100CB000808385EC90E09587848784EC90E097872B
:100CC000868780EC90E0918B808B81EC90E0938B19
:100CD000828B82EC90E0958B848B86EC90E0978BF6
:100CE000868B118E128E138E148EE6E1F2E0138243
:100CF000128286E191E09183808383E0848384E0A3
:100D0000858385E0868386E0878387E080871686F3
:100D10000895CF93DF93CDB7DEB728970FB6F89439
:100D2000DEBF0FBECDBF789484B5826084BD84B52C
:100D3000816084BD85B5826085BD85B5816085BDD6
:100D400080916E00816080936E001092810080918E
:100D50008100826080938100809181008160809316
:100D60008100809180008160809380008091B1003B
:100D700084608093B1008091B00081608093B00066
:100D800080917A00846080937A0080917A008260FA
:100D900080937A0080917A00816080937A008091BC
:100DA0007A00806880937A001092C10084E5809375
:100DB000200280E38093210210921F0210922202EF
:100DC00010922302E5E2F2E080E4DF011D928A95B1
:100DD000E9F761E080911A020E94F70161E08091D9
:100DE0001B020E94F70161E080911C020E94F70142
:100DF00061E080911D020E94F70161E080911E0276
:100E00000E94F70161E080911D020E94C90161E02A
:100E100080911E020E94C90160E080911D020E9423
:100E2000C90164E670E080E090E00E945E0261E04B
:100E300080911D020E94C90141E260E086E192E0DA
:100E40000E94A10343E160E086E192E00E94A103D9
:100E500080911F0242EC813039F440EE60E086E17F
:100E600092E00E94A10345E060E086E192E00E94EA
:100E7000A10340E260E086E192E00E94A10349E024
:100E800060E086E192E00E94A10380E00E94CF032F
:100E90001A82198280912102869586958695909175
:100EA0002002899FC001112429813A81281739071E
:100EB00060F440E061E086E192E00E94A103898154
:100EC0009A8101969A838983E5CF80E00E94CF03BF
:100ED00048E060E086E192E00E94A1034CE060E01F
:100EE00086E192E00E94A10364E670E080E090E079
:100EF0000E945E0240E860E086E192E00E94A10369
:100F000040E460E086E192E00E94A103E091890163
:100F1000F0918A0182E08083E0918501F091860161
:100F20001082E0918701F09188018FEC808310920C
:100F30009101E0918D01F0918E0186E08083E09136
:100F40008B01F0918C01808180618083E0918B0125
:100F5000F0918C01808188608083E0918B01F09119
:100F60008C01808180688083E0918B01F0918C01FD
:100F700080818F7D808361E08DE00E94F70160E0D9
:100F80008CE00E94F70180E0282E80E0382E84E07B
:100F90000E942802892B09F0BFC180E00E9428022C
:100FA000A5E0A89FB001A99F700D1124072E000C89
:100FB000880B990B0E946C0C20E030EC4FE754E456
:100FC0000E94C90B29E034E545E55EE30E94C90BA8
:100FD0004B015C0180E00E94CF036DE271E086E18D
:100FE00092E00E94280581E00E94CF0367E371E050
:100FF00086E192E00E942805B501A40186E192E015
:101000000E944F046DE371E086E192E00E942805A2
:1010100081E00E942802B5E0B89FB001B99F700D31
:101020001124072E000C880B990B0E946C0C20E0F9
:1010300030EC4FE754E40E94C90B29E034E545E564
:101040005EE30E94C90B6B017C0182E00E94CF032A
:1010500061E471E086E192E00E942805B701A601F3
:1010600086E192E00E944F046DE371E086E192E038
:101070000E94280582E00E94280225E0289FB001F6
:10108000299F700D1124072E000C880B990B0E94CC
:101090006C0C20E030EC4FE754E40E94C90B29E0CF
:1010A00034E545E55EE30E94C90B2B013C0183E07A
:1010B0000E94CF0367E471E086E192E00E94280578
:1010C000B301A20186E192E00E944F046DE371E05A
:1010D00086E192E00E94280583E00E94280235E024
:1010E000389FB001399F700D1124072E000C880B1A
:1010F000990B0E946C0C20E030EC4FE754E40E9406
:10110000C90B29E034E545E55EE30E94C90B69831C
:101110007A838B839C83DC01CB01B0588D839E83C3
:10112000AF83B88784E00E94CF036DE471E086E16D
:1011300092E00E9428054D815E816F81788586E16D
:1011400092E00E944F046DE371E086E192E00E941C
:10115000280568EE73E080E090E00E945E020E9445
:10116000A501019709F05AC063E571E089E791E0B4
:101170000E9428050E94FD0367E371E089E791E082
:101180000E942805B501A40189E791E00E944F045F
:101190006DE371E089E791E00E9428050E94FD035C
:1011A00061E471E089E791E00E942805B701A6019A
:1011B00089E791E00E944F046DE371E089E791E0D7
:1011C0000E9428050E94FD0367E471E089E791E031
:1011D0000E942805B301A20189E791E00E944F0413
:1011E0006DE371E089E791E00E9428050E94FD030C
:1011F0006DE471E089E791E00E9428054D815E81F0
:101200006F81788589E791E00E944F046DE371E07A
:1012100089E791E00E9428050E94FD0311E020E08B
:1012200030E040EA51E4C501B4010E941C0D1816DB
:101230000CF010E091E09D8320E030E040EA51E4C2
:10124000C701B6010E941C0D18160CF01D82AD815D
:10125000A12BAD8311E020E030E040EA51E4C3016E
:10126000B2010E941C0D18160CF010E0BD81B12BCC
:1012700061F420E030E040EA51EC69817A818B81B1
:101280009C810E94C40B87FF10C061E08DE00E942A
:10129000C9012114310409F47ACE0E94FA0288238C
:1012A00009F475CE0E94000072CE20E030E040EAE2
:1012B00051ECC501B4010E94C40B881F8827881F08
:1012C0008D8320E030E040EA51ECC701B6010E9476
:1012D000C40B881F8827881F2D81282B2D8320E091
:1012E00030E040EA51ECC301B2010E94C40B881FF8
:1012F0008827881F3D81382B41F620E030E040EA06
:1013000051E469817A818B819C810E941C0D1816A1
:101310000CF4BBCF60E0BACF80E00E942802A5E0C9
:10132000A89FB001A99F700D1124072E000C880BF7
:10133000990B0E946C0C20E030EC4FE754E40E94C3
:10134000C90B29E034E545E55EE30E94C90B23EFB4
:1013500034E045EB5FE30E94C90B2B013C0180E0C8
:101360000E94CF036EE571E086E192E00E942805BD
:1013700081E00E94CF0367E371E086E192E00E9482
:101380002805B301A20186E192E00E944F046DE3BB
:1013900071E086E192E00E94280581E00E94280227
:1013A000B5E0B89FB001B99F700D1124072E000C55
:1013B000880B990B0E946C0C20E030EC4FE754E452
:1013C0000E94C90B29E034E545E55EE30E94C90BA4
:1013D00023EF34E045EB5FE30E94C90B4B015C0156
:1013E00082E00E94CF0361E471E086E192E00E9416
:1013F0002805B501A40186E192E00E944F046CE645
:1014000071E086E192E00E94280582E00E942802B5
:1014100025E0289FB001299F700D1124072E000C94
:10142000880B990B0E946C0C20E030EC4FE754E4E1
:101430000E94C90B29E034E545E55EE30E94C90B33
:1014400023EF34E045EB5FE30E94C90B6B017C01A5
:1014500083E00E94CF0367E471E086E192E00E949E
:101460002805B701A60186E192E00E944F046DE3D2
:1014700071E086E192E00E94280583E00E94280244
:1014800035E0389FB001399F700D1124072E000CF4
:10149000880B990B0E946C0C20E030EC4FE754E471
:1014A0000E94C90B29E034E545E55EE30E94C90BC3
:1014B000905823EF34E045EB5FE30E94C90B69834A
:1014C0007A838B839C8384E00E94CF036DE471E078
:1014D00086E192E00E94280549815A816B817C81D6
:1014E00086E192E00E944F046DE371E086E192E0B4
:1014F0000E94280568EE73E080E090E00E945E02A2
:101500000E94A501019709F05AC06EE571E089E7D4
:1015100091E00E9428050E94FD0367E371E089E7DE
:1015200091E00E942805B301A20189E791E00E94A1
:101530004F046DE371E089E791E00E9428050E9465
:10154000FD0361E471E089E791E00E942805B5019F
:10155000A40189E791E00E944F046DE371E089E7FF
:1015600091E00E9428050E94FD0367E471E089E78D
:1015700091E00E942805B701A60189E791E00E9449
:101580004F046DE371E089E791E00E9428050E9415
:10159000FD036DE471E089E791E00E94280549812F
:1015A0005A816B817C8189E791E00E944F046DE351
:1015B00071E089E791E00E9428050E94FD0311E097
:1015C00020E030E040EA51E4C301B2010E941C0D6A
:1015D00018160CF010E081E08D8320E030E040EA46
:1015E00051E4C501B4010E941C0D18160CF01D82B7
:1015F0009D81912B9D8311E020E030E040EA51E491
:10160000C701B6010E941C0D18160CF010E0AD8148
:10161000A12B09F03ACE20E030E040EA51E46981A4
:101620007A818B819C810E941C0D18160CF42DCEA2
:1016300020E030E040EA51ECC301B2010E94C40B4B
:10164000881F8827881F8D8320E030E040EA51EC16
:10165000C501B4010E94C40B881F8827881FBD8163
:10166000B82BBD8320E030E040EA51ECC701B60161
:101670000E94C40B881F8827881F2D81282B09F002
:1016800004CE20E030E040EA51EC69817A818B8120
:101690009C810E94C40B87FF3DCEF7CDFB01DC018E
:1016A00002C005900D9241505040D8F7089550580F
:1016B000BB27AA270E946F0B0C94E20C0E94D40C4B
:1016C00038F00E94DB0C20F039F49F3F19F426F427
:1016D0000C94D10C0EF4E095E7FB0C94CB0CE92FA5
:1016E0000E94F30C58F3BA17620773078407950733
:1016F00020F079F4A6F50C94150D0EF4E0950B2E60
:10170000BA2FA02D0B01B90190010C01CA01A00153
:101710001124FF27591B99F0593F50F4503E68F1AE
:101720001A16F040A22F232F342F4427585FF3CFEF
:10173000469537952795A795F0405395C9F77EF4C0
:101740001F16BA0B620B730B840BBAF09150A1F009
:10175000FF0FBB1F661F771F881FC2F70EC0BA0F8F
:10176000621F731F841F48F4879577956795B79517
:10177000F7959E3F08F0B0CF9395880F08F0992712
:10178000EE0F9795879508950E94A70C08F481E0C5
:1017900008950E94DD0B0C94E20C0E94DB0C58F0C3
:1017A0000E94D40C40F029F45F3F29F00C94CB0C3C
:1017B00051110C94160D0C94D10C0E94F30C68F38B
:1017C0009923B1F3552391F3951B550BBB27AA27FA
:1017D00062177307840738F09F5F5F4F220F331F34
:1017E000441FAA1FA9F335D00E2E3AF0E0E832D0FC
:1017F00091505040E695001CCAF72BD0FE2F29D0FF
:10180000660F771F881FBB1F261737074807AB07D0
:10181000B0E809F0BB0B802DBF01FF2793585F4F45
:101820003AF09E3F510578F00C94CB0C0C94160DB9
:101830005F3FE4F3983ED4F3869577956795B79527
:10184000F7959F5FC9F7880F911D9695879597F932
:101850000895E1E0660F771F881FBB1F62177307AB
:101860008407BA0720F0621B730B840BBA0BEE1FC0
:1018700088F7E09508950E94FB0C88F09F5798F038
:10188000B92F9927B751B0F0E1F0660F771F881F85
:10189000991F1AF0BA95C9F714C0B13091F00E949F
:1018A000150DB1E008950C94150D672F782F88273A
:1018B000B85F39F0B93FCCF3869577956795B395C6
:1018C000D9F73EF490958095709561957F4F8F4F35
:1018D0009F4F0895E89409C097FB3EF4909580953A
:1018E000709561957F4F8F4F9F4F9923A9F0F92FE6
:1018F00096E9BB279395F695879577956795B79564
:10190000F111F8CFFAF4BB0F11F460FF1BC06F5F49
:101910007F4F8F4F9F4F16C0882311F096E911C05B
:10192000772321F09EE8872F762F05C0662371F07C
:1019300096E8862F70E060E02AF09A95660F771F90
:10194000881FDAF7880F9695879597F90895990F6C
:101950000008550FAA0BE0E8FEEF16161706E80779
:10196000F907C0F012161306E407F50798F0621B9A
:10197000730B840B950B39F40A2661F0232B242B6F
:10198000252B21F408950A2609F4A140A6958FEF8E
:10199000811D811D089597F99F6780E870E060E0E0
:1019A00008959FEF80EC089500240A9416161706F8
:1019B00018060906089500240A9412161306140640
:1019C00005060895092E0394000C11F4882352F0A3
:1019D000BB0F40F4BF2B11F460FF04C06F5F7F4F5B
:1019E0008F4F9F4F089557FD9058440F551F59F042
:1019F0005F3F71F04795880F97FB991F61F09F3FFC
:101A000079F087950895121613061406551FF2CF24
:101A10004695F1DF08C0161617061806991FF1CF74
:101A200086957105610508940895E894BB2766279B
:101A30007727CB0197F908950E94A70C08F48FEF40
:101A400008950E94340D0C94E20C0E94D40C38F0DE
:101A50000E94DB0C20F0952311F00C94CB0C0C941D
:101A6000D10C11240C94160D0E94F30C70F3959F69
:101A7000C1F3950F50E0551F629FF001729FBB2785
:101A8000F00DB11D639FAA27F00DB11DAA1F649F21
:101A90006627B00DA11D661F829F2227B00DA11DD4
:101AA000621F739FB00DA11D621F839FA00D611D5A
:101AB000221F749F3327A00D611D231F849F600D7B
:101AC000211D822F762F6A2F11249F5750409AF0A4
:101AD000F1F088234AF0EE0FFF1FBB1F661F771F30
:101AE000881F91505040A9F79E3F510580F00C94FB
:101AF000CB0C0C94160D5F3FE4F3983ED4F386951F
:101B000077956795B795F795E7959F5FC1F7FE2B9A
:101B1000880F911D9695879597F908950E94A70CB7
:101B2000880B990B089597FB072E16F4009407D0A5
:101B300077FD09D00E94C90D07FC05D03EF49095B1
:101B400081959F4F0895709561957F4F0895A1E20B
:101B50001A2EAA1BBB1BFD010DC0AA1FBB1FEE1F27
:101B6000FF1FA217B307E407F50720F0A21BB30B72
:101B7000E40BF50B661F771F881F991F1A9469F7EE
:101B800060957095809590959B01AC01BD01CF014A
:101B90000895AA1BBB1B51E107C0AA1FBB1FA617B4
:101BA000B70710F0A61BB70B881F991F5A95A9F706
:101BB00080959095BC01CD010895EE0FFF1F059013
:0A1BC000F491E02D0994F894FFCF92
:101BCA000000000030039002BD027D03EE02CC0249
:101BDA00E002000000002A0590029E039D030D0A00
:101BEA00006E616E00696E66006F76660020562090
:101BFA00656E2044433A002056313A200020562090
:101C0A00002056323A20002056333A20002056341B
:101C1A003A2000205620656E2044433A2000205680
:101C2A00726D7320656E2041433A200020560000F1
:00000001FF
